:020000020000FC
:102000004F938F939F930F93F89445B14C7F45B9AD
:1020100044B1436044B94BB14F704BB94AB1406FC2
:102020004AB9789490E084E60E94D01091E48FEF52
:102030000E94D010F8944BB14F7040634BB9789424
:102040000E94721091E18FEF0E94D010F8944BB172
:102050004F7040634BB978940E94721090E088E70B
:102060000E94D010F8944BB14F7040634BB97894F4
:102070000E947210F8944BB14F7040624BB9789443
:102080000E94721008E20E9480100CE00E948010F2
:1020900006E00E9480100E94BE100F919F918F91C8
:1020A0004F9108950E9457100E94BD1008950F93FC
:1020B000012F0E946C100F9108958F939F930F939F
:1020C0000F7300640E94801090E088E20E94D0109C
:1020D0000F919F918F9108950F9300680E94801037
:1020E0000F9108958F939F93299A90E084E10E9425
:1020F000D010299884E10E94D0109F918F9108956B
:102100000F931F934F93102F107F000F000F000F9E
:10211000000F2898F8944BB14F70412B4BB978942D
:102120000E947210F8944BB14F70402B4BB97894C9
:102130000E9472104F911F910F9108950F931F935A
:102140004F93102F107F000F000F000F000F289AE1
:10215000F8944BB14F70412B4BB978940E94721098
:10216000F8944BB14F70402B4BB978940E94721089
:1021700028984F911F910F910895E0CF9F938F93CF
:102180000F9301E00E94801097E08FEF0E94D01023
:102190000F918F919F9108952A9A08952A980895F2
:1021A0004F9344E04A95F1F70197D9F74F9108957D
:020000001FC11E
:100200004E51574552545955494F504C4B4A484707
:10021000464453415A4356424E4D203132332034E6
:10022000203334322035313335203420736E676803
:100230007779636F6F625B776266642073666500CF
:1002400008E00EBF0FEF0DBF0E94001020E1E0E0BC
:10025000F1E000E0A0E0B1E029E00D932A95E9F794
:10026000A9E0B1E02AE10D932A95E9F7A3E2B1E014
:100270002AE10D932A95E9F76591662349F16033E8
:1002800028F16A3348F46153A0E0B1E0A60F5C9115
:1002900053955C930C943C016134C0F06B3548F489
:1002A0006154A9E0B1E0A60F5C9153955C930C9466
:1002B0003C01613658F06B3748F46156A3E2B1E077
:1002C000A60F5C9153955C930C943C010C943C01FB
:1002D00020E030E040E050E0A0E0B1E029E00E9402
:1002E000810141E0A9E0B1E02AE10E9481012AE117
:1002F00042E0A3E2B1E00E9481010E94B4010C94AB
:1003000068016D916623B9F0423061F0413029F007
:100310000AE30E949F010C9495010BE50E949F0146
:100320000C9495010BE70E949F013395303119F42D
:100330000E94B40133272A95222319F708950E94B9
:10034000A8010E94AD0100E3060F0E949E100895CF
:10035000021B132F0E94521008950F9300E4030F05
:100360000E946C100F91089573E00AEF1AEF1A952E
:10037000F1F70A95D9F77A957723C1F70E94BE1055
:040380003327089582
:00000001FF
