:020000020000FC
:102000004F938F939F930F93F89445B14C7F45B9AD
:1020100044B1436044B94BB14F704BB94AB1406FC2
:102020004AB9789490E084E60E94D01091E48FEF52
:102030000E94D010F8944BB14F7040634BB9789424
:102040000E94721091E18FEF0E94D010F8944BB172
:102050004F7040634BB978940E94721090E088E70B
:102060000E94D010F8944BB14F7040634BB97894F4
:102070000E947210F8944BB14F7040624BB9789443
:102080000E94721008E20E9480100CE00E948010F2
:1020900006E00E9480100E94BE100F919F918F91C8
:1020A0004F9108950E9457100E94BD1008950F93FC
:1020B000012F0E946C100F9108958F939F930F939F
:1020C0000F7300640E94801090E088E20E94D0109C
:1020D0000F919F918F9108950F9300680E94801037
:1020E0000F9108958F939F93299A90E084E10E9425
:1020F000D010299884E10E94D0109F918F9108956B
:102100000F931F934F93102F107F000F000F000F9E
:10211000000F2898F8944BB14F70412B4BB978942D
:102120000E947210F8944BB14F70402B4BB97894C9
:102130000E9472104F911F910F9108950F931F935A
:102140004F93102F107F000F000F000F000F289AE1
:10215000F8944BB14F70412B4BB978940E94721098
:10216000F8944BB14F70402B4BB978940E94721089
:1021700028984F911F910F910895E0CF9F938F93CF
:102180000F9301E00E94801097E08FEF0E94D01023
:102190000F918F919F9108952A9A08952A980895F2
:1021A0004F9344E04A95F1F70197D9F74F9108957D
:040000000C9400015B
:100200000E94001005E01AE021E1402F50E047FD78
:100210005FEF612F70E067FD7FEF822F90E087FD39
:100220009FEFA4E04A9F402D512D1124A3E06A9F27
:10023000602D712D1124460F571F481B590BA42FF9
:10024000A770A030A1F005E415E00E94521002E56D
:1002500016E00E94521002E517E00E9452100FE4CF
:1002600018E00E94521002E519E00E9452105595C4
:10027000479555954795559547956627772710E0FB
:10028000652F0E94510111E0652F0E945C0112E070
:10029000642F0E94510113E0642F0E945C010C94B2
:1002A0004F01607F66956695669566950E9463012D
:1002B000062F0E94521008956F700E946301062F4E
:1002C0000E94521008956A3008F0695F605D0895D9
:00000001FF
